{
  "contractName": "MediChain",
  "abi": [
    {
      "inputs": [],
      "stateMutability": "nonpayable",
      "type": "constructor"
    },
    {
      "inputs": [
        {
          "internalType": "uint256",
          "name": "",
          "type": "uint256"
        }
      ],
      "name": "claims",
      "outputs": [
        {
          "internalType": "address",
          "name": "doctor",
          "type": "address"
        },
        {
          "internalType": "address",
          "name": "patient",
          "type": "address"
        },
        {
          "internalType": "address",
          "name": "insurer",
          "type": "address"
        },
        {
          "internalType": "string",
          "name": "policyName",
          "type": "string"
        },
        {
          "internalType": "string",
          "name": "record",
          "type": "string"
        },
        {
          "internalType": "uint256",
          "name": "valueClaimed",
          "type": "uint256"
        },
        {
          "internalType": "bool",
          "name": "approved",
          "type": "bool"
        },
        {
          "internalType": "bool",
          "name": "rejected",
          "type": "bool"
        },
        {
          "internalType": "uint256",
          "name": "transactionId",
          "type": "uint256"
        }
      ],
      "stateMutability": "view",
      "type": "function",
      "constant": true
    },
    {
      "inputs": [],
      "name": "claimsCount",
      "outputs": [
        {
          "internalType": "uint256",
          "name": "",
          "type": "uint256"
        }
      ],
      "stateMutability": "view",
      "type": "function",
      "constant": true
    },
    {
      "inputs": [
        {
          "internalType": "address",
          "name": "",
          "type": "address"
        }
      ],
      "name": "doctorInfo",
      "outputs": [
        {
          "internalType": "string",
          "name": "name",
          "type": "string"
        },
        {
          "internalType": "string",
          "name": "email",
          "type": "string"
        },
        {
          "internalType": "bool",
          "name": "exists",
          "type": "bool"
        }
      ],
      "stateMutability": "view",
      "type": "function",
      "constant": true
    },
    {
      "inputs": [
        {
          "internalType": "uint256",
          "name": "",
          "type": "uint256"
        }
      ],
      "name": "doctorList",
      "outputs": [
        {
          "internalType": "address",
          "name": "",
          "type": "address"
        }
      ],
      "stateMutability": "view",
      "type": "function",
      "constant": true
    },
    {
      "inputs": [
        {
          "internalType": "string",
          "name": "",
          "type": "string"
        }
      ],
      "name": "emailToAddress",
      "outputs": [
        {
          "internalType": "address",
          "name": "",
          "type": "address"
        }
      ],
      "stateMutability": "view",
      "type": "function",
      "constant": true
    },
    {
      "inputs": [
        {
          "internalType": "string",
          "name": "",
          "type": "string"
        }
      ],
      "name": "emailToDesignation",
      "outputs": [
        {
          "internalType": "uint256",
          "name": "",
          "type": "uint256"
        }
      ],
      "stateMutability": "view",
      "type": "function",
      "constant": true
    },
    {
      "inputs": [
        {
          "internalType": "address",
          "name": "",
          "type": "address"
        }
      ],
      "name": "insurerInfo",
      "outputs": [
        {
          "internalType": "string",
          "name": "name",
          "type": "string"
        },
        {
          "internalType": "string",
          "name": "email",
          "type": "string"
        },
        {
          "internalType": "bool",
          "name": "exists",
          "type": "bool"
        }
      ],
      "stateMutability": "view",
      "type": "function",
      "constant": true
    },
    {
      "inputs": [
        {
          "internalType": "uint256",
          "name": "",
          "type": "uint256"
        }
      ],
      "name": "insurerList",
      "outputs": [
        {
          "internalType": "address",
          "name": "",
          "type": "address"
        }
      ],
      "stateMutability": "view",
      "type": "function",
      "constant": true
    },
    {
      "inputs": [],
      "name": "name",
      "outputs": [
        {
          "internalType": "string",
          "name": "",
          "type": "string"
        }
      ],
      "stateMutability": "view",
      "type": "function",
      "constant": true
    },
    {
      "inputs": [
        {
          "internalType": "address",
          "name": "",
          "type": "address"
        }
      ],
      "name": "patientInfo",
      "outputs": [
        {
          "internalType": "string",
          "name": "name",
          "type": "string"
        },
        {
          "internalType": "string",
          "name": "email",
          "type": "string"
        },
        {
          "internalType": "uint256",
          "name": "age",
          "type": "uint256"
        },
        {
          "internalType": "string",
          "name": "record",
          "type": "string"
        },
        {
          "internalType": "bool",
          "name": "exists",
          "type": "bool"
        },
        {
          "internalType": "bool",
          "name": "policyActive",
          "type": "bool"
        },
        {
          "components": [
            {
              "internalType": "uint256",
              "name": "id",
              "type": "uint256"
            },
            {
              "internalType": "address",
              "name": "insurer",
              "type": "address"
            },
            {
              "internalType": "string",
              "name": "name",
              "type": "string"
            },
            {
              "internalType": "uint256",
              "name": "coverValue",
              "type": "uint256"
            },
            {
              "internalType": "uint256",
              "name": "timePeriod",
              "type": "uint256"
            },
            {
              "internalType": "uint256",
              "name": "premium",
              "type": "uint256"
            }
          ],
          "internalType": "struct MediChain.Policy",
          "name": "policy",
          "type": "tuple"
        }
      ],
      "stateMutability": "view",
      "type": "function",
      "constant": true
    },
    {
      "inputs": [
        {
          "internalType": "uint256",
          "name": "",
          "type": "uint256"
        }
      ],
      "name": "patientList",
      "outputs": [
        {
          "internalType": "address",
          "name": "",
          "type": "address"
        }
      ],
      "stateMutability": "view",
      "type": "function",
      "constant": true
    },
    {
      "inputs": [
        {
          "internalType": "uint256",
          "name": "",
          "type": "uint256"
        }
      ],
      "name": "policyList",
      "outputs": [
        {
          "internalType": "uint256",
          "name": "id",
          "type": "uint256"
        },
        {
          "internalType": "address",
          "name": "insurer",
          "type": "address"
        },
        {
          "internalType": "string",
          "name": "name",
          "type": "string"
        },
        {
          "internalType": "uint256",
          "name": "coverValue",
          "type": "uint256"
        },
        {
          "internalType": "uint256",
          "name": "timePeriod",
          "type": "uint256"
        },
        {
          "internalType": "uint256",
          "name": "premium",
          "type": "uint256"
        }
      ],
      "stateMutability": "view",
      "type": "function",
      "constant": true
    },
    {
      "inputs": [],
      "name": "transactionCount",
      "outputs": [
        {
          "internalType": "uint256",
          "name": "",
          "type": "uint256"
        }
      ],
      "stateMutability": "view",
      "type": "function",
      "constant": true
    },
    {
      "inputs": [
        {
          "internalType": "uint256",
          "name": "",
          "type": "uint256"
        }
      ],
      "name": "transactions",
      "outputs": [
        {
          "internalType": "address",
          "name": "sender",
          "type": "address"
        },
        {
          "internalType": "address",
          "name": "receiver",
          "type": "address"
        },
        {
          "internalType": "uint256",
          "name": "value",
          "type": "uint256"
        },
        {
          "internalType": "bool",
          "name": "settled",
          "type": "bool"
        }
      ],
      "stateMutability": "view",
      "type": "function",
      "constant": true
    },
    {
      "inputs": [
        {
          "internalType": "string",
          "name": "_name",
          "type": "string"
        },
        {
          "internalType": "uint256",
          "name": "_age",
          "type": "uint256"
        },
        {
          "internalType": "uint256",
          "name": "_designation",
          "type": "uint256"
        },
        {
          "internalType": "string",
          "name": "_email",
          "type": "string"
        },
        {
          "internalType": "string",
          "name": "_hash",
          "type": "string"
        }
      ],
      "name": "register",
      "outputs": [],
      "stateMutability": "nonpayable",
      "type": "function"
    },
    {
      "inputs": [
        {
          "internalType": "address",
          "name": "_addr",
          "type": "address"
        }
      ],
      "name": "login",
      "outputs": [
        {
          "internalType": "uint256",
          "name": "",
          "type": "uint256"
        }
      ],
      "stateMutability": "view",
      "type": "function",
      "constant": true
    },
    {
      "inputs": [
        {
          "internalType": "address",
          "name": "_addr",
          "type": "address"
        }
      ],
      "name": "getPatientDoctorList",
      "outputs": [
        {
          "internalType": "address[]",
          "name": "",
          "type": "address[]"
        }
      ],
      "stateMutability": "view",
      "type": "function",
      "constant": true
    },
    {
      "inputs": [
        {
          "internalType": "address",
          "name": "_addr",
          "type": "address"
        }
      ],
      "name": "getDoctorPatientList",
      "outputs": [
        {
          "internalType": "address[]",
          "name": "",
          "type": "address[]"
        }
      ],
      "stateMutability": "view",
      "type": "function",
      "constant": true
    },
    {
      "inputs": [
        {
          "internalType": "address",
          "name": "_addr",
          "type": "address"
        }
      ],
      "name": "getInsurerPolicyList",
      "outputs": [
        {
          "components": [
            {
              "internalType": "uint256",
              "name": "id",
              "type": "uint256"
            },
            {
              "internalType": "address",
              "name": "insurer",
              "type": "address"
            },
            {
              "internalType": "string",
              "name": "name",
              "type": "string"
            },
            {
              "internalType": "uint256",
              "name": "coverValue",
              "type": "uint256"
            },
            {
              "internalType": "uint256",
              "name": "timePeriod",
              "type": "uint256"
            },
            {
              "internalType": "uint256",
              "name": "premium",
              "type": "uint256"
            }
          ],
          "internalType": "struct MediChain.Policy[]",
          "name": "",
          "type": "tuple[]"
        }
      ],
      "stateMutability": "view",
      "type": "function",
      "constant": true
    },
    {
      "inputs": [
        {
          "internalType": "address",
          "name": "_addr",
          "type": "address"
        }
      ],
      "name": "getInsurerPatientList",
      "outputs": [
        {
          "internalType": "address[]",
          "name": "",
          "type": "address[]"
        }
      ],
      "stateMutability": "view",
      "type": "function",
      "constant": true
    },
    {
      "inputs": [
        {
          "internalType": "address",
          "name": "_addr",
          "type": "address"
        }
      ],
      "name": "getInsurerClaims",
      "outputs": [
        {
          "internalType": "uint256[]",
          "name": "",
          "type": "uint256[]"
        }
      ],
      "stateMutability": "view",
      "type": "function",
      "constant": true
    },
    {
      "inputs": [
        {
          "internalType": "address",
          "name": "_addr",
          "type": "address"
        }
      ],
      "name": "getPatientTransactions",
      "outputs": [
        {
          "internalType": "uint256[]",
          "name": "",
          "type": "uint256[]"
        }
      ],
      "stateMutability": "view",
      "type": "function",
      "constant": true
    },
    {
      "inputs": [
        {
          "internalType": "address",
          "name": "_addr",
          "type": "address"
        }
      ],
      "name": "getDoctorTransactions",
      "outputs": [
        {
          "internalType": "uint256[]",
          "name": "",
          "type": "uint256[]"
        }
      ],
      "stateMutability": "view",
      "type": "function",
      "constant": true
    },
    {
      "inputs": [],
      "name": "getAllDoctorsAddress",
      "outputs": [
        {
          "internalType": "address[]",
          "name": "",
          "type": "address[]"
        }
      ],
      "stateMutability": "view",
      "type": "function",
      "constant": true
    },
    {
      "inputs": [],
      "name": "getAllInsurersAddress",
      "outputs": [
        {
          "internalType": "address[]",
          "name": "",
          "type": "address[]"
        }
      ],
      "stateMutability": "view",
      "type": "function",
      "constant": true
    },
    {
      "inputs": [],
      "name": "getAllPolicies",
      "outputs": [
        {
          "components": [
            {
              "internalType": "uint256",
              "name": "id",
              "type": "uint256"
            },
            {
              "internalType": "address",
              "name": "insurer",
              "type": "address"
            },
            {
              "internalType": "string",
              "name": "name",
              "type": "string"
            },
            {
              "internalType": "uint256",
              "name": "coverValue",
              "type": "uint256"
            },
            {
              "internalType": "uint256",
              "name": "timePeriod",
              "type": "uint256"
            },
            {
              "internalType": "uint256",
              "name": "premium",
              "type": "uint256"
            }
          ],
          "internalType": "struct MediChain.Policy[]",
          "name": "",
          "type": "tuple[]"
        }
      ],
      "stateMutability": "view",
      "type": "function",
      "constant": true
    },
    {
      "inputs": [
        {
          "internalType": "address",
          "name": "_addr",
          "type": "address"
        }
      ],
      "name": "getPatientRecord",
      "outputs": [
        {
          "internalType": "string",
          "name": "",
          "type": "string"
        }
      ],
      "stateMutability": "view",
      "type": "function",
      "constant": true
    },
    {
      "inputs": [
        {
          "internalType": "string",
          "name": "_email",
          "type": "string"
        }
      ],
      "name": "permitAccess",
      "outputs": [],
      "stateMutability": "nonpayable",
      "type": "function"
    },
    {
      "inputs": [
        {
          "internalType": "uint256",
          "name": "_id",
          "type": "uint256"
        }
      ],
      "name": "buyPolicy",
      "outputs": [],
      "stateMutability": "payable",
      "type": "function",
      "payable": true
    },
    {
      "inputs": [
        {
          "internalType": "address",
          "name": "_addr",
          "type": "address"
        }
      ],
      "name": "revokeAccess",
      "outputs": [],
      "stateMutability": "nonpayable",
      "type": "function"
    },
    {
      "inputs": [
        {
          "internalType": "uint256",
          "name": "_id",
          "type": "uint256"
        }
      ],
      "name": "settleTransactionsByPatient",
      "outputs": [],
      "stateMutability": "payable",
      "type": "function",
      "payable": true
    },
    {
      "inputs": [
        {
          "internalType": "address",
          "name": "paddr",
          "type": "address"
        },
        {
          "internalType": "string",
          "name": "_hash",
          "type": "string"
        },
        {
          "internalType": "uint256",
          "name": "charges",
          "type": "uint256"
        }
      ],
      "name": "insuranceClaimRequest",
      "outputs": [],
      "stateMutability": "nonpayable",
      "type": "function"
    },
    {
      "inputs": [
        {
          "internalType": "string",
          "name": "_name",
          "type": "string"
        },
        {
          "internalType": "uint256",
          "name": "_coverValue",
          "type": "uint256"
        },
        {
          "internalType": "uint256",
          "name": "_timePeriod",
          "type": "uint256"
        },
        {
          "internalType": "uint256",
          "name": "_premium",
          "type": "uint256"
        }
      ],
      "name": "createPolicy",
      "outputs": [],
      "stateMutability": "nonpayable",
      "type": "function"
    },
    {
      "inputs": [
        {
          "internalType": "uint256",
          "name": "_id",
          "type": "uint256"
        }
      ],
      "name": "approveClaimsByInsurer",
      "outputs": [],
      "stateMutability": "payable",
      "type": "function",
      "payable": true
    },
    {
      "inputs": [
        {
          "internalType": "uint256",
          "name": "_id",
          "type": "uint256"
        }
      ],
      "name": "rejectClaimsByInsurer",
      "outputs": [],
      "stateMutability": "nonpayable",
      "type": "function"
    }
  ],
  "bytecode": "0x60806040523480156200001157600080fd5b5060408051808201909152600981526836b2b234b1b430b4b760b91b6020820152600090620000419082620000f7565b5060006005819055600655620001c3565b634e487b7160e01b600052604160045260246000fd5b600181811c908216806200007d57607f821691505b6020821081036200009e57634e487b7160e01b600052602260045260246000fd5b50919050565b601f821115620000f257600081815260208120601f850160051c81016020861015620000cd5750805b601f850160051c820191505b81811015620000ee57828155600101620000d9565b5050505b505050565b81516001600160401b0381111562000113576200011362000052565b6200012b8162000124845462000068565b84620000a4565b602080601f8311600181146200016357600084156200014a5750858301515b600019600386901b1c1916600185901b178555620000ee565b600085815260208120601f198616915b82811015620001945788860151825594840194600190910190840162000173565b5085821015620001b35787850151600019600388901b60f8161c191681555b5050505050600190811b01905550565b61390e80620001d36000396000f3fe6080604052600436106102045760003560e01c806371343df611610118578063a9bc9933116100a0578063cd10b92e1161006f578063cd10b92e14610694578063ea78dcbf146106b4578063eeec248a146106f5578063fa46548514610715578063fae0aee21461072857600080fd5b8063a9bc993314610628578063b77bf60014610648578063babb1d411461065e578063bbd245ea1461067e57600080fd5b8063844ff83d116100e7578063844ff83d1461051f57806385e68531146105345780639493ba55146105545780639ace38c214610574578063a888c2cd146105f357600080fd5b806371343df6146104ac57806378ffb292146104cc57806379c88894146104ec578063840c9ad2146104ff57600080fd5b8063457e55211161019b5780634ff9290b1161016a5780634ff9290b146104065780635497dacf146104195780636142d2dc1461043957806363ff69ba1461046c5780636586a91f1461048c57600080fd5b8063457e55211461037b5780634ab72aae1461039d5780634d70c524146103bf5780634fdc9ea9146103d457600080fd5b806318607174116101d757806318607174146102df5780631bf04073146102ff57806331c15f9d1461032e57806335a6861a1461035b57600080fd5b806306fdde031461020957806310d2581114610234578063127ca4b41461027a5780631707c2e3146102b2575b600080fd5b34801561021557600080fd5b5061021e610748565b60405161022b91906130e9565b60405180910390f35b34801561024057600080fd5b5061026c61024f3660046131a6565b8051602081830181018051600d8252928201919093012091525481565b60405190815260200161022b565b34801561028657600080fd5b5061029a6102953660046131e3565b6107d6565b6040516001600160a01b03909116815260200161022b565b3480156102be57600080fd5b506102d26102cd366004613213565b610800565b60405161022b919061322e565b3480156102eb57600080fd5b5061021e6102fa366004613213565b6108aa565b34801561030b57600080fd5b5061031f61031a366004613213565b6109b6565b60405161022b93929190613272565b34801561033a57600080fd5b5061034e610349366004613213565b610aeb565b60405161022b91906132aa565b34801561036757600080fd5b5061026c610376366004613213565b610b9e565b34801561038757600080fd5b50610390610c44565b60405161022b9190613346565b3480156103a957600080fd5b506103bd6103b83660046133a8565b610d73565b005b3480156103cb57600080fd5b5061034e610f6d565b3480156103e057600080fd5b506103f46103ef3660046131e3565b610fcf565b60405161022b969594939291906133fc565b6103bd6104143660046131e3565b6110aa565b34801561042557600080fd5b5061034e610434366004613213565b6111e9565b34801561044557600080fd5b50610459610454366004613213565b61129b565b60405161022b9796959493929190613444565b34801561047857600080fd5b506103bd6104873660046131e3565b61154d565b34801561049857600080fd5b506103906104a7366004613213565b611701565b3480156104b857600080fd5b506102d26104c7366004613213565b611881565b3480156104d857600080fd5b5061029a6104e73660046131e3565b611929565b6103bd6104fa3660046131e3565b611939565b34801561050b57600080fd5b5061031f61051a366004613213565b611bd7565b34801561052b57600080fd5b5061034e611bf2565b34801561054057600080fd5b506103bd61054f366004613213565b611c52565b34801561056057600080fd5b5061034e61056f366004613213565b611cfc565b34801561058057600080fd5b506105c661058f3660046131e3565b60086020526000908152604090208054600182015460028301546003909301546001600160a01b0392831693919092169160ff1684565b604080516001600160a01b039586168152949093166020850152918301521515606082015260800161022b565b3480156105ff57600080fd5b5061061361060e3660046131e3565b611dae565b60405161022b999897969594939291906134b5565b34801561063457600080fd5b506103bd610643366004613528565b611f1f565b34801561065457600080fd5b5061026c60065481565b34801561066a57600080fd5b5061029a6106793660046131e3565b612913565b34801561068a57600080fd5b5061026c60055481565b3480156106a057600080fd5b506102d26106af366004613213565b612923565b3480156106c057600080fd5b5061029a6106cf3660046131a6565b8051602081830181018051600c825292820191909301209152546001600160a01b031681565b34801561070157600080fd5b506103bd61071036600461357f565b6129cb565b6103bd6107233660046131e3565b612d59565b34801561073457600080fd5b506103bd6107433660046131a6565b612e52565b600080546107559061361b565b80601f01602080910402602001604051908101604052809291908181526020018280546107819061361b565b80156107ce5780601f106107a3576101008083540402835291602001916107ce565b820191906000526020600020905b8154815290600101906020018083116107b157829003601f168201915b505050505081565b600281815481106107e657600080fd5b6000918252602090912001546001600160a01b0316905081565b60606001600160a01b03821661081557600080fd5b6001600160a01b03821660009081526009602052604090206004015460ff1661083d57600080fd5b6001600160a01b038216600090815260096020908152604091829020600b018054835181840281018401909452808452909183018282801561089e57602002820191906000526020600020905b81548152602001906001019080831161088a575b50505050509050919050565b6001600160a01b03811660009081526009602052604090206004015460609060ff166109155760405162461bcd60e51b815260206004820152601660248201527514185d1a595b9d08191bd95cc81b9bdd08195e1a5cdd60521b604482015260640160405180910390fd5b6001600160a01b0382166000908152600960205260409020600301805461093b9061361b565b80601f01602080910402602001604051908101604052809291908181526020018280546109679061361b565b801561089e5780601f106109895761010080835404028352916020019161089e565b820191906000526020600020905b8154815290600101906020018083116109975750939695505050505050565b600a602052600090815260409020805481906109d19061361b565b80601f01602080910402602001604051908101604052809291908181526020018280546109fd9061361b565b8015610a4a5780601f10610a1f57610100808354040283529160200191610a4a565b820191906000526020600020905b815481529060010190602001808311610a2d57829003601f168201915b505050505090806001018054610a5f9061361b565b80601f0160208091040260200160405190810160405280929190818152602001828054610a8b9061361b565b8015610ad85780601f10610aad57610100808354040283529160200191610ad8565b820191906000526020600020905b815481529060010190602001808311610abb57829003601f168201915b5050506002909301549192505060ff1683565b60606001600160a01b038216610b0057600080fd5b6001600160a01b0382166000908152600b602052604090206002015460ff16610b2857600080fd5b6001600160a01b0382166000908152600b60209081526040918290206004018054835181840281018401909452808452909183018282801561089e57602002820191906000526020600020905b81546001600160a01b03168152600190910190602001808311610b755750505050509050919050565b60006001600160a01b038216610bb357600080fd5b6001600160a01b03821660009081526009602052604090206004015460ff1615610bdf57506001919050565b6001600160a01b0382166000908152600a602052604090206002015460ff1615610c0b57506002919050565b6001600160a01b0382166000908152600b602052604090206002015460ff1615610c3757506003919050565b506000919050565b919050565b60606004805480602002602001604051908101604052809291908181526020016000905b82821015610d6a5760008481526020908190206040805160c081018252600686029092018054835260018101546001600160a01b03169383019390935260028301805492939291840191610cbb9061361b565b80601f0160208091040260200160405190810160405280929190818152602001828054610ce79061361b565b8015610d345780601f10610d0957610100808354040283529160200191610d34565b820191906000526020600020905b815481529060010190602001808311610d1757829003601f168201915b50505050508152602001600382015481526020016004820154815260200160058201548152505081526020019060010190610c68565b50505050905090565b6000845111610d8157600080fd5b60008311610d8e57600080fd5b60008111610d9b57600080fd5b60008211610da857600080fd5b33610db257600080fd5b336000908152600b602052604090206002015460ff16610dd157600080fd5b6040805160c081018252600480548083523360208401908152938301888152606084018890526080840187905260a0840186905260018201835560009290925282517f8a35acfbc15ff81a39ae7d344fd709f28e8600b4aa8c65c6b64bfe7fe36bd19b600690920291820190815593517f8a35acfbc15ff81a39ae7d344fd709f28e8600b4aa8c65c6b64bfe7fe36bd19c820180546001600160a01b0319166001600160a01b0390921691909117905590519192839290917f8a35acfbc15ff81a39ae7d344fd709f28e8600b4aa8c65c6b64bfe7fe36bd19d0190610eb690826136a0565b5060608201516003828101919091556080830151600483015560a090920151600590910155336000908152600b602090815260408083209093018054600180820183559184529282902085516006909402019283559084015190820180546001600160a01b0319166001600160a01b03909216919091179055908201518291906002820190610f4590826136a0565b50606082015181600301556080820151816004015560a0820151816005015550505050505050565b60606003805480602002602001604051908101604052809291908181526020018280548015610fc557602002820191906000526020600020905b81546001600160a01b03168152600190910190602001808311610fa7575b5050505050905090565b60048181548110610fdf57600080fd5b60009182526020909120600690910201805460018201546002830180549294506001600160a01b0390911692916110159061361b565b80601f01602080910402602001604051908101604052809291908181526020018280546110419061361b565b801561108e5780601f106110635761010080835404028352916020019161108e565b820191906000526020600020905b81548152906001019060200180831161107157829003601f168201915b5050505050908060030154908060040154908060050154905086565b336110b457600080fd5b336000908152600b602052604090206002015460ff166110d357600080fd5b6000818152600760205260409020600201546001600160a01b031633146110f957600080fd5b60008181526007602052604090206006015460ff161561111857600080fd5b600081815260076020526040902060060154610100900460ff161561113c57600080fd5b6000818152600760209081526040808320546001600160a01b0316808452600a9092529091206002015460ff1661117257600080fd5b6040516001600160a01b038216903480156108fc02916000818181858888f193505050501580156111a7573d6000803e3d6000fd5b50506000908152600760208181526040808420600681018054600160ff1991821681179092559190940154855260089092529092206003018054909216179055565b60606001600160a01b0382166111fe57600080fd5b6001600160a01b0382166000908152600a602052604090206002015460ff1661122657600080fd5b6001600160a01b0382166000908152600a60209081526040918290206004018054835181840281018401909452808452909183018282801561089e576020028201919060005260206000209081546001600160a01b03168152600190910190602001808311610b755750505050509050919050565b6009602052600090815260409020805481906112b69061361b565b80601f01602080910402602001604051908101604052809291908181526020018280546112e29061361b565b801561132f5780601f106113045761010080835404028352916020019161132f565b820191906000526020600020905b81548152906001019060200180831161131257829003601f168201915b5050505050908060010180546113449061361b565b80601f01602080910402602001604051908101604052809291908181526020018280546113709061361b565b80156113bd5780601f10611392576101008083540402835291602001916113bd565b820191906000526020600020905b8154815290600101906020018083116113a057829003601f168201915b5050505050908060020154908060030180546113d89061361b565b80601f01602080910402602001604051908101604052809291908181526020018280546114049061361b565b80156114515780601f1061142657610100808354040283529160200191611451565b820191906000526020600020905b81548152906001019060200180831161143457829003601f168201915b50505060048401546040805160c081018252600587018054825260068801546001600160a01b03166020830152600788018054979860ff80871699610100909704169750955091939092840191906114a89061361b565b80601f01602080910402602001604051908101604052809291908181526020018280546114d49061361b565b80156115215780601f106114f657610100808354040283529160200191611521565b820191906000526020600020905b81548152906001019060200180831161150457829003601f168201915b505050505081526020016003820154815260200160048201548152602001600582015481525050905087565b3361155757600080fd5b336000908152600b602052604090206002015460ff1661157657600080fd5b6000818152600760205260409020600201546001600160a01b0316331461159c57600080fd5b60008181526007602052604090206006015460ff16156115bb57600080fd5b600081815260076020526040902060060154610100900460ff16156115df57600080fd5b6000818152600760209081526040808320600101546001600160a01b031680845260099092529091206004015460ff1661161857600080fd5b600082815260076020818152604080842060068101805461ff001916610100908117909155938101805486526008845282862080546001600160a01b0389166001600160a01b03199091168117825580885260098087529488209254600b84018054600181018255908a52878a2001559096529190925260048101549193926005909101910460ff166116ce576001600160a01b0384166000908152600960205260409020600401805461ff0019166101001790555b600085815260076020526040812060050154600383018054919290916116f5908490613776565b90915550505050505050565b60606001600160a01b03821661171657600080fd5b6001600160a01b0382166000908152600b602052604090206002015460ff1661173e57600080fd5b6001600160a01b0382166000908152600b6020908152604080832060030180548251818502810185019093528083529193909284015b828210156118765760008481526020908190206040805160c081018252600686029092018054835260018101546001600160a01b031693830193909352600283018054929392918401916117c79061361b565b80601f01602080910402602001604051908101604052809291908181526020018280546117f39061361b565b80156118405780601f1061181557610100808354040283529160200191611840565b820191906000526020600020905b81548152906001019060200180831161182357829003601f168201915b50505050508152602001600382015481526020016004820154815260200160058201548152505081526020019060010190611774565b505050509050919050565b60606001600160a01b03821661189657600080fd5b6001600160a01b0382166000908152600a602052604090206002015460ff166118be57600080fd5b6001600160a01b0382166000908152600a60209081526040918290206003018054835181840281018401909452808452909183018282801561089e576020028201919060005260206000209081548152602001906001019080831161088a5750505050509050919050565b600381815481106107e657600080fd5b600454811061194757600080fd5b3361195157600080fd5b3360009081526009602052604090206004015460ff1661197057600080fd5b343331101561197e57600080fd5b6004818154811061199157611991613789565b600091825260208220600160069092020101546040516001600160a01b03909116913480156108fc02929091818181858888f193505050501580156119da573d6000803e3d6000fd5b50600481815481106119ee576119ee613789565b6000918252602080832060069092029091015433835260099091526040909120600501556004805482908110611a2657611a26613789565b600091825260208083203384526009909152604090922060070191611a5291600602016002018261379f565b5060048181548110611a6657611a66613789565b600091825260208083206003600690930201919091015433835260099091526040909120600801556004805482908110611aa257611aa2613789565b60009182526020808320600160069384029091010154338452600990915260409092200180546001600160a01b0319166001600160a01b039092169190911790556004805482908110611af757611af7613789565b60009182526020808320600460069093020182015433845260099182905260409093200191909155805482908110611b3157611b31613789565b6000918252602080832060056006909302019190910154338352600990915260408220600a8101919091556004908101805461ff0019166101001790558054600b92919084908110611b8557611b85613789565b6000918252602080832060016006909302018201546001600160a01b031684528381019490945260409092018120600401805492830181558152919091200180546001600160a01b0319163317905550565b600b602052600090815260409020805481906109d19061361b565b60606002805480602002602001604051908101604052809291908181526020018280548015610fc5576020028201919060005260206000209081546001600160a01b03168152600190910190602001808311610fa7575050505050905090565b6001600160a01b038116611c6557600080fd5b33611c6f57600080fd5b6001600160a01b0381166000908152600a602052604090206002015460ff16611c9757600080fd5b3360009081526009602052604090206004015460ff16611cb657600080fd5b6001600160a01b0381166000908152600a60205260409020611cdb9060040133612f55565b50336000908152600960205260409020611cf890600c0182612f55565b5050565b60606001600160a01b038216611d1157600080fd5b6001600160a01b03821660009081526009602052604090206004015460ff16611d3957600080fd5b6001600160a01b038216600090815260096020908152604091829020600c018054835181840281018401909452808452909183018282801561089e576020028201919060005260206000209081546001600160a01b03168152600190910190602001808311610b755750505050509050919050565b60076020526000908152604090208054600182015460028301546003840180546001600160a01b0394851695938516949092169291611dec9061361b565b80601f0160208091040260200160405190810160405280929190818152602001828054611e189061361b565b8015611e655780601f10611e3a57610100808354040283529160200191611e65565b820191906000526020600020905b815481529060010190602001808311611e4857829003601f168201915b505050505090806004018054611e7a9061361b565b80601f0160208091040260200160405190810160405280929190818152602001828054611ea69061361b565b8015611ef35780601f10611ec857610100808354040283529160200191611ef3565b820191906000526020600020905b815481529060010190602001808311611ed657829003601f168201915b505050600584015460068501546007909501549394909360ff8083169450610100909204909116915089565b33611f2957600080fd5b6001600160a01b038316611f3c57600080fd5b336000908152600a602052604090206002015460ff16611f5b57600080fd5b6001600160a01b03831660009081526009602052604090206004015460ff16611f8357600080fd5b6000825111611f9157600080fd5b6000805b336000908152600a602052604090206004015481101561201057336000908152600a6020526040902060040180546001600160a01b038716919083908110611fdf57611fdf613789565b6000918252602090912001546001600160a01b031603611ffe57600191505b806120088161387a565b915050611f95565b508061201b57600080fd5b6001600160a01b038416600090815260096020526040902060030161204084826136a0565b506001600160a01b038416600090815260096020526040902060040154610100900460ff16801561208b57506001600160a01b03841660009081526009602052604090206008015415155b15612831576001600160a01b0380851660009081526009602052604090206006810154600890910154911690831161240057600680549060006120cd8361387a565b9091555050604080516080810182526001600160a01b038084168083523360208085018281528587018a815260006060880181815260068054835260088087528b84209a518b54908b166001600160a01b0319918216178c55955160018c81018054928d169290981691909117909655935160028b015590516003998a01805491151560ff19909216919091179055948152600a845288812085549801805480850182559082528482200197909755938652600b82528686208354930180549182018155865281862001919091559189168352600990915291902001546121b5908490613893565b6001600160a01b0386166000908152600960205260408120600801829055036121fd576001600160a01b0385166000908152600960205260409020600401805461ff00191690555b6005805490600061220d8361387a565b909155505060408051610120810182523381526001600160a01b038781166020808401829052918516838501526000908152600990915291909120600701805460608301919061225c9061361b565b80601f01602080910402602001604051908101604052809291908181526020018280546122889061361b565b80156122d55780601f106122aa576101008083540402835291602001916122d5565b820191906000526020600020905b8154815290600101906020018083116122b857829003601f168201915b505050918352505060208082018790526040808301879052600060608085018290526080850182905260065460a090950194909452600554815260078352819020845181546001600160a01b03199081166001600160a01b039283161783559386015160018301805486169183169190911790559185015160028201805490941692169190911790915590820151600382019061237290826136a0565b506080820151600482019061238790826136a0565b5060a082015160058281019190915560c083015160068301805460e086015161ffff1990911692151561ff001916929092176101009215158302179055909201516007909101556001600160a01b0382166000908152600b6020908152604082208354930180546001810182559083529120015561282b565b600680549060006124108361387a565b9091555050604080516080810182526001600160a01b038716808252336020808401919091526000918252600990528290206008015490918201906124559086613893565b815260006020918201819052600680548252600883526040808320855181546001600160a01b03199081166001600160a01b039283161783558787015160018085018054909316918416919091179091558784015160028401556060909701516003928301805460ff1916911515919091179055338552600a8652828520845492018054808901825590865286862001919091558a1683526009845282208154600b909101805495860181558352928220909301919091558154919061251a8361387a565b9091555050604080516080810182526001600160a01b038381168083523360208085018281528b8516600090815260098352878120600890810154888a01908152606089018381526006805485529286528a842099518a546001600160a01b0319908116918b16919091178b5594516001808c01805490971691909a161790945551600289015591516003978801805460ff1916911515919091179055928352600a825286832081549601805480870182559084528284200195909555918152600b8252938420835493018054928301815584528320015560058054916126008361387a565b909155505060408051610120810182523381526001600160a01b038781166020808401829052918516838501526000908152600990915291909120600701805460608301919061264f9061361b565b80601f016020809104026020016040519081016040528092919081815260200182805461267b9061361b565b80156126c85780601f1061269d576101008083540402835291602001916126c8565b820191906000526020600020905b8154815290600101906020018083116126ab57829003601f168201915b505050918352505060208082018790526001600160a01b038089166000908152600983526040808220600801548186015260608086018390526080860183905260065460a09096019590955260055482526007845290819020855181549084166001600160a01b0319918216178255938601516001820180549185169186169190911790559085015160028201805491909316931692909217905590820151600382019061277690826136a0565b506080820151600482019061278b90826136a0565b5060a082015160058281019190915560c083015160068301805460e086015161ffff1990911692151561ff001990811693909317610100911515820217909155909301516007909201919091556001600160a01b038381166000908152600b602090815260408083208554950180546001810182559084528284200194909455918916815260099091529081206008810191909155600401805490911690555b5061290d565b600680549060006128418361387a565b9091555050604080516080810182526001600160a01b03808716808352336020808501828152858701898152600060608801818152600680548352600886528a832099518a54908a166001600160a01b0319918216178b55945160018b8101805492909b1691909616179098559151600289015590516003978801805491151560ff19909216919091179055928352600a825286832085549601805480830182559084528284200195909555918152600982529384209154600b90920180549384018155845290922001555b50505050565b600181815481106107e657600080fd5b60606001600160a01b03821661293857600080fd5b6001600160a01b0382166000908152600b602052604090206002015460ff1661296057600080fd5b6001600160a01b0382166000908152600b60209081526040918290206005018054835181840281018401909452808452909183018282801561089e576020028201919060005260206000209081548152602001906001019080831161088a5750505050509050919050565b336129d557600080fd5b60008551116129e357600080fd5b60008251116129f157600080fd5b60006001600160a01b0316600c83604051612a0c91906138a6565b908152604051908190036020019020546001600160a01b031614612a2f57600080fd5b600d82604051612a3f91906138a6565b908152602001604051809103902054600014612a5a57600080fd5b3360008181526009602052604090206004015460ff1615612a7a57600080fd5b6001600160a01b0381166000908152600a602052604090206002015460ff1615612aa357600080fd5b6001600160a01b0381166000908152600b602052604090206002015460ff1615612acc57600080fd5b83600103612bff5760008511612ae157600080fd5b6000825111612aef57600080fd5b6001600160a01b038116600090815260096020526040902080612b1288826136a0565b5060018101612b2185826136a0565b506002810186905560038101612b3784826136a0565b50600481018054600160ff199091168117909155805480820182556000919091527fb10e2d527612073b26eecdfd717e6a320cf44b4afac2b0732d9fcbe2b7fa0cf60180546001600160a01b0319166001600160a01b0384161790556040518290600c90612ba69087906138a6565b908152602001604051809103902060006101000a8154816001600160a01b0302191690836001600160a01b0316021790555084600d85604051612be991906138a6565b9081526040519081900360200190205550612d51565b83600203612ca9576001600160a01b0381166000908152600a6020526040902080612c2a88826136a0565b5060018101612c3985826136a0565b5060028181018054600160ff199091168117909155815490810182556000919091527f405787fa12a823e0f2b7631cc41b3ba8828b3321ca811111fa75cd3aa3bb5ace0180546001600160a01b0319166001600160a01b0384161790556040518290600c90612ba69087906138a6565b83600303610204576001600160a01b0381166000908152600b6020526040902080612cd488826136a0565b5060018101612ce385826136a0565b50600281018054600160ff1990911681179091556003805491820181556000527fc2575a0e9e593c00f959f8c92f12db2869c3395a3b0502d05e2516446f71f85b0180546001600160a01b0319166001600160a01b0384161790556040518290600c90612ba69087906138a6565b505050505050565b33612d6357600080fd5b3360009081526009602052604090206004015460ff16612d8257600080fd5b6000818152600860205260409020546001600160a01b03163314612da557600080fd5b60008181526008602052604090206003015460ff1615612dc457600080fd5b6000818152600860209081526040808320600101546001600160a01b0316808452600a9092529091206002015460ff16612dfd57600080fd5b6040516001600160a01b038216903480156108fc02916000818181858888f19350505050158015612e32573d6000803e3d6000fd5b50506000908152600860205260409020600301805460ff19166001179055565b6000815111612e6057600080fd5b33612e6a57600080fd5b6000600c82604051612e7c91906138a6565b908152604051908190036020019020546001600160a01b0316905080612ea157600080fd5b3360009081526009602052604090206004015460ff16612ec057600080fd5b6001600160a01b0381166000908152600a602052604090206002015460ff16612ee857600080fd5b6001600160a01b03166000818152600a60209081526040808320338085526009845291842060049091018054600181810183559186528486200180546001600160a01b03199081169094179055600c90910180549182018155845291909220018054909116909117905550565b60006001600160a01b038216612f6a57600080fd5b60008060005b8554811015612fc957846001600160a01b0316868281548110612f9557612f95613789565b6000918252602090912001546001600160a01b031603612fb757600192508091505b80612fc18161387a565b915050612f70565b5081612fd457600080fd5b84546001101561305d5784548590612fee90600190613893565b81548110612ffe57612ffe613789565b9060005260206000200160009054906101000a90046001600160a01b031685828154811061302e5761302e613789565b9060005260206000200160006101000a8154816001600160a01b0302191690836001600160a01b031602179055505b8480548061306d5761306d6138c2565b600082815260209020810160001990810180546001600160a01b03191690550190559150505b92915050565b60005b838110156130b457818101518382015260200161309c565b50506000910152565b600081518084526130d5816020860160208601613099565b601f01601f19169290920160200192915050565b6020815260006130fc60208301846130bd565b9392505050565b634e487b7160e01b600052604160045260246000fd5b600082601f83011261312a57600080fd5b813567ffffffffffffffff8082111561314557613145613103565b604051601f8301601f19908116603f0116810190828211818310171561316d5761316d613103565b8160405283815286602085880101111561318657600080fd5b836020870160208301376000602085830101528094505050505092915050565b6000602082840312156131b857600080fd5b813567ffffffffffffffff8111156131cf57600080fd5b6131db84828501613119565b949350505050565b6000602082840312156131f557600080fd5b5035919050565b80356001600160a01b0381168114610c3f57600080fd5b60006020828403121561322557600080fd5b6130fc826131fc565b6020808252825182820181905260009190848201906040850190845b818110156132665783518352928401929184019160010161324a565b50909695505050505050565b60608152600061328560608301866130bd565b828103602084015261329781866130bd565b9150508215156040830152949350505050565b6020808252825182820181905260009190848201906040850190845b818110156132665783516001600160a01b0316835292840192918401916001016132c6565b8051825260018060a01b0360208201511660208301526000604082015160c0604085015261331c60c08501826130bd565b9050606083015160608501526080830151608085015260a083015160a08501528091505092915050565b6000602080830181845280855180835260408601915060408160051b870101925083870160005b8281101561339b57603f198886030184526133898583516132eb565b9450928501929085019060010161336d565b5092979650505050505050565b600080600080608085870312156133be57600080fd5b843567ffffffffffffffff8111156133d557600080fd5b6133e187828801613119565b97602087013597506040870135966060013595509350505050565b8681526001600160a01b038616602082015260c060408201819052600090613426908301876130bd565b606083019590955250608081019290925260a0909101529392505050565b60e08152600061345760e083018a6130bd565b8281036020840152613469818a6130bd565b9050876040840152828103606084015261348381886130bd565b9050851515608084015284151560a084015282810360c08401526134a781856132eb565b9a9950505050505050505050565b6001600160a01b038a81168252898116602083015288166040820152610120606082018190526000906134ea8382018a6130bd565b905082810360808401526134fe81896130bd565b60a0840197909752505092151560c084015290151560e08301526101009091015295945050505050565b60008060006060848603121561353d57600080fd5b613546846131fc565b9250602084013567ffffffffffffffff81111561356257600080fd5b61356e86828701613119565b925050604084013590509250925092565b600080600080600060a0868803121561359757600080fd5b853567ffffffffffffffff808211156135af57600080fd5b6135bb89838a01613119565b9650602088013595506040880135945060608801359150808211156135df57600080fd5b6135eb89838a01613119565b9350608088013591508082111561360157600080fd5b5061360e88828901613119565b9150509295509295909350565b600181811c9082168061362f57607f821691505b60208210810361364f57634e487b7160e01b600052602260045260246000fd5b50919050565b601f82111561369b57600081815260208120601f850160051c8101602086101561367c5750805b601f850160051c820191505b81811015612d5157828155600101613688565b505050565b815167ffffffffffffffff8111156136ba576136ba613103565b6136ce816136c8845461361b565b84613655565b602080601f83116001811461370357600084156136eb5750858301515b600019600386901b1c1916600185901b178555612d51565b600085815260208120601f198616915b8281101561373257888601518255948401946001909101908401613713565b50858210156137505787850151600019600388901b60f8161c191681555b5050505050600190811b01905550565b634e487b7160e01b600052601160045260246000fd5b8082018082111561309357613093613760565b634e487b7160e01b600052603260045260246000fd5b8181036137aa575050565b6137b4825461361b565b67ffffffffffffffff8111156137cc576137cc613103565b6137da816136c8845461361b565b6000601f82116001811461380e57600083156137f65750848201545b600019600385901b1c1916600184901b178455613873565b600085815260209020601f19841690600086815260209020845b838110156138485782860154825560019586019590910190602001613828565b50858310156138665781850154600019600388901b60f8161c191681555b50505060018360011b0184555b5050505050565b60006001820161388c5761388c613760565b5060010190565b8181038181111561309357613093613760565b600082516138b8818460208701613099565b9190910192915050565b634e487b7160e01b600052603160045260246000fdfea264697066735822122067f45cd49776533690601f9143c079b97fbed5b429b93ec78b00967f0e5e1a7164736f6c63430008120033",
  "immutableReferences": {},
  "source": "// SPDX-License-Identifier: MIT\r\npragma solidity >=0.4.22 <0.9.0;\r\n\r\ncontract MediChain {\r\n    // State Variables\r\n    string public name;\r\n    // uint public countPatients;\r\n    // uint public countDoctors;\r\n    // uint public countInsurer;\r\n    // uint public countPolicy;\r\n    address[] public patientList;\r\n    address[] public doctorList;\r\n    address[] public insurerList;\r\n    Policy[] public policyList;\r\n    uint public claimsCount;\r\n    uint public transactionCount;\r\n    mapping (uint => Claims) public claims;\r\n    mapping (uint => Transactions) public transactions;\r\n    mapping (address => Patient) public patientInfo;\r\n    mapping (address => Doctor) public doctorInfo;\r\n    mapping (address => Insurer) public insurerInfo;\r\n    mapping (string => address) public emailToAddress;\r\n    mapping (string => uint) public emailToDesignation;\r\n\r\n    struct Patient {\r\n        string name;\r\n        string email;\r\n        uint age;\r\n        string record;\r\n        bool exists;\r\n        bool policyActive;\r\n        Policy policy;\r\n        uint[] transactions;\r\n        address[] doctorAccessList;\r\n    }\r\n    struct Doctor {\r\n        string name;\r\n        string email;\r\n        bool exists;\r\n        uint[] transactions;\r\n        address[] patientAccessList;\r\n    }\r\n    struct Insurer {\r\n        string name;\r\n        string email;\r\n        bool exists;\r\n        Policy[] policies;\r\n        address[] patients;\r\n        uint[] claims;\r\n        uint[] transactions;\r\n    }\r\n    struct Policy {\r\n        uint id;\r\n        address insurer;\r\n        string name;\r\n        uint coverValue;\r\n        uint timePeriod;\r\n        uint premium;\r\n    }\r\n    struct Claims {\r\n        address doctor;\r\n        address patient;\r\n        address insurer;\r\n        string policyName;\r\n        string record;\r\n        uint valueClaimed;\r\n        bool approved;\r\n        bool rejected;\r\n        uint transactionId;\r\n    }\r\n    struct Transactions {\r\n        address sender;\r\n        address receiver;\r\n        uint value;\r\n        bool settled;\r\n    }\r\n\r\n    constructor(){\r\n        name = \"medichain\";\r\n        claimsCount = 0;\r\n        transactionCount = 0;\r\n    }\r\n\r\n    function register(string memory _name, uint _age, uint _designation, string memory _email, string memory _hash) public {\r\n        require(msg.sender != address(0));\r\n        require(bytes(_name).length > 0);\r\n        require(bytes(_email).length > 0);\r\n        require(emailToAddress[_email] == address(0));\r\n        require(emailToDesignation[_email] == 0);\r\n        address _addr = msg.sender;\r\n        require(!patientInfo[_addr].exists);\r\n        require(!doctorInfo[_addr].exists);\r\n        require(!insurerInfo[_addr].exists);\r\n        if(_designation == 1){\r\n            require(_age > 0);\r\n            require(bytes(_hash).length > 0);\r\n            Patient storage pinfo = patientInfo[_addr];\r\n            pinfo.name = _name;\r\n            pinfo.email = _email;\r\n            pinfo.age = _age;\r\n            pinfo.record = _hash;\r\n            pinfo.exists = true;\r\n            pinfo.doctorAccessList;\r\n            patientList.push(_addr);\r\n            emailToAddress[_email] = _addr;\r\n            emailToDesignation[_email] = _designation;\r\n        }\r\n        else if (_designation == 2){\r\n            Doctor storage dinfo = doctorInfo[_addr];\r\n            dinfo.name = _name;\r\n            dinfo.email = _email;\r\n            dinfo.exists = true;\r\n            doctorList.push(_addr);\r\n            emailToAddress[_email] = _addr;\r\n            emailToDesignation[_email] = _designation;\r\n        }\r\n        else if(_designation == 3){\r\n            Insurer storage iinfo = insurerInfo[_addr];\r\n            iinfo.name = _name;\r\n            iinfo.email = _email;\r\n            iinfo.exists = true;\r\n            insurerList.push(_addr);\r\n            emailToAddress[_email] = _addr;\r\n            emailToDesignation[_email] = _designation;\r\n        }\r\n        else{\r\n            revert();\r\n        }\r\n    }\r\n\r\n    function login(address _addr) view public returns (uint){\r\n        require(_addr != address(0));\r\n        if(patientInfo[_addr].exists){\r\n            return 1;\r\n        }else if(doctorInfo[_addr].exists){\r\n            return 2;\r\n        }else if(insurerInfo[_addr].exists){\r\n            return 3;\r\n        }else{\r\n            return 0;\r\n        }\r\n    }\r\n\r\n    \r\n    function getPatientDoctorList(address _addr) view public returns (address[] memory){\r\n        require(_addr != address(0));\r\n        require(patientInfo[_addr].exists);\r\n        return (patientInfo[_addr].doctorAccessList);\r\n    }\r\n    function getDoctorPatientList(address _addr) view public returns (address[] memory){\r\n        require(_addr != address(0));\r\n        require(doctorInfo[_addr].exists);\r\n        return (doctorInfo[_addr].patientAccessList);\r\n    }\r\n    function getInsurerPolicyList(address _addr) view public returns (Policy[] memory) {\r\n        require(_addr != address(0));\r\n        require(insurerInfo[_addr].exists);\r\n        return (insurerInfo[_addr].policies);\r\n    }\r\n    function getInsurerPatientList(address _addr) view public returns (address[] memory){\r\n        require(_addr != address(0));\r\n        require(insurerInfo[_addr].exists);\r\n        return (insurerInfo[_addr].patients);\r\n    }\r\n    function getInsurerClaims(address _addr) view public returns (uint[] memory){\r\n        require(_addr != address(0));\r\n        require(insurerInfo[_addr].exists);\r\n        return (insurerInfo[_addr].claims);\r\n    }\r\n    function getPatientTransactions(address _addr) view public returns (uint[] memory){\r\n        require(_addr != address(0));\r\n        require(patientInfo[_addr].exists);\r\n        return (patientInfo[_addr].transactions);\r\n    }\r\n    function getDoctorTransactions(address _addr) view public returns (uint[] memory){\r\n        require(_addr != address(0));\r\n        require(doctorInfo[_addr].exists);\r\n        return (doctorInfo[_addr].transactions);\r\n    }\r\n    function getAllDoctorsAddress() view public returns (address[] memory) {\r\n        return doctorList;\r\n    }\r\n    function getAllInsurersAddress() view public returns (address[] memory) {\r\n        return insurerList;\r\n    }\r\n    function getAllPolicies() view public returns (Policy[] memory) {\r\n        return policyList;\r\n    }\r\n    function getPatientRecord(address _addr) public view returns (string memory) {\r\n        require(patientInfo[_addr].exists, \"Patient does not exist\");\r\n        return patientInfo[_addr].record;\r\n    }\r\n    // Called By Patient\r\n    function permitAccess(string memory _email) public {\r\n        require(bytes(_email).length > 0);\r\n        require(msg.sender != address(0));\r\n        address _addr = emailToAddress[_email];\r\n        require(_addr != address(0));\r\n        require(patientInfo[msg.sender].exists);\r\n        require(doctorInfo[_addr].exists);\r\n        Doctor storage dinfo = doctorInfo[_addr];\r\n        Patient storage pinfo = patientInfo[msg.sender];\r\n        dinfo.patientAccessList.push(msg.sender);\r\n        pinfo.doctorAccessList.push(_addr);\r\n    }\r\n\r\n    // Called By Patient\r\n    function buyPolicy(uint _id) payable public {\r\n        require(_id >= 0 && _id < policyList.length);\r\n        require(msg.sender != address(0));\r\n        require(patientInfo[msg.sender].exists);\r\n        require(msg.sender.balance >= msg.value);\r\n        payable(policyList[_id].insurer).transfer(msg.value);\r\n        patientInfo[msg.sender].policy.id = policyList[_id].id;\r\n        patientInfo[msg.sender].policy.name = policyList[_id].name;\r\n        patientInfo[msg.sender].policy.coverValue = policyList[_id].coverValue;\r\n        patientInfo[msg.sender].policy.insurer = policyList[_id].insurer;\r\n        patientInfo[msg.sender].policy.timePeriod = policyList[_id].timePeriod;\r\n        patientInfo[msg.sender].policy.premium = policyList[_id].premium;\r\n        patientInfo[msg.sender].policyActive = true;\r\n        insurerInfo[policyList[_id].insurer].patients.push(msg.sender);\r\n    }\r\n    \r\n    // Called by Patient\r\n    function revokeAccess(address _addr) public{\r\n        require(_addr != address(0));\r\n        require(msg.sender != address(0));\r\n        require(doctorInfo[_addr].exists);\r\n        require(patientInfo[msg.sender].exists);\r\n        removeFromList(doctorInfo[_addr].patientAccessList, msg.sender);\r\n        removeFromList(patientInfo[msg.sender].doctorAccessList, _addr);\r\n    }\r\n\r\n    // Called by Patient\r\n    function settleTransactionsByPatient(uint _id) payable public {\r\n        require(msg.sender != address(0));\r\n        require(patientInfo[msg.sender].exists);\r\n        require(msg.sender == transactions[_id].sender);\r\n        require(!transactions[_id].settled);\r\n        address _addr = transactions[_id].receiver;\r\n        require(doctorInfo[_addr].exists);\r\n        payable(_addr).transfer(msg.value);\r\n        transactions[_id].settled = true;\r\n    }\r\n\r\n    // Called by Doctor\r\n    function insuranceClaimRequest(address paddr, string memory _hash, uint charges) public {\r\n        require(msg.sender != address(0));\r\n        require(paddr != address(0));\r\n        require(doctorInfo[msg.sender].exists);\r\n        require(patientInfo[paddr].exists);\r\n        require(bytes(_hash).length > 0);\r\n        bool patientFound = false;\r\n        for(uint i = 0;i<doctorInfo[msg.sender].patientAccessList.length;i++){\r\n            if(doctorInfo[msg.sender].patientAccessList[i]==paddr){\r\n                patientFound = true;\r\n            }\r\n        }\r\n        if(!patientFound){\r\n            revert();\r\n        }\r\n        patientInfo[paddr].record = _hash;\r\n        if(patientInfo[paddr].policyActive && patientInfo[paddr].policy.coverValue > 0){\r\n            address iaddr = patientInfo[paddr].policy.insurer;\r\n            if(patientInfo[paddr].policy.coverValue >= charges){\r\n                transactionCount++;\r\n                transactions[transactionCount] = Transactions(iaddr, msg.sender, charges, false);\r\n                doctorInfo[msg.sender].transactions.push(transactionCount);\r\n                insurerInfo[iaddr].transactions.push(transactionCount);\r\n                patientInfo[paddr].policy.coverValue = patientInfo[paddr].policy.coverValue - charges;\r\n                if(patientInfo[paddr].policy.coverValue==0){\r\n                    patientInfo[paddr].policyActive = false;\r\n                }\r\n                claimsCount++;\r\n                claims[claimsCount] = Claims(msg.sender, paddr, iaddr, patientInfo[paddr].policy.name, _hash, charges, false, false, transactionCount);\r\n                insurerInfo[iaddr].claims.push(claimsCount);\r\n            }else{\r\n                transactionCount++;\r\n                transactions[transactionCount] = Transactions(paddr, msg.sender, charges-patientInfo[paddr].policy.coverValue, false);\r\n                doctorInfo[msg.sender].transactions.push(transactionCount);\r\n                patientInfo[paddr].transactions.push(transactionCount);\r\n                transactionCount++;\r\n                transactions[transactionCount] = Transactions(iaddr, msg.sender, patientInfo[paddr].policy.coverValue, false);\r\n                doctorInfo[msg.sender].transactions.push(transactionCount);\r\n                insurerInfo[iaddr].transactions.push(transactionCount);\r\n                claimsCount++;\r\n                claims[claimsCount] = Claims(msg.sender, paddr, iaddr, patientInfo[paddr].policy.name, _hash, patientInfo[paddr].policy.coverValue, false, false, transactionCount);\r\n                insurerInfo[iaddr].claims.push(claimsCount);\r\n                patientInfo[paddr].policy.coverValue = 0;\r\n                patientInfo[paddr].policyActive = false;\r\n            }\r\n        }else{\r\n            transactionCount++;\r\n            transactions[transactionCount] = Transactions(paddr, msg.sender, charges, false);\r\n            doctorInfo[msg.sender].transactions.push(transactionCount);\r\n            patientInfo[paddr].transactions.push(transactionCount);\r\n        }\r\n    }\r\n\r\n    // Called By Insurer\r\n    function createPolicy(string memory _name, uint _coverValue, uint _timePeriod, uint _premium) public {\r\n        require(bytes(_name).length > 0);\r\n        require(_coverValue > 0);\r\n        require(_premium > 0);\r\n        require(_timePeriod > 0);\r\n        require(msg.sender != address(0));\r\n        require(insurerInfo[msg.sender].exists);\r\n        Policy memory pol = Policy(policyList.length, msg.sender, _name, _coverValue, _timePeriod, _premium);\r\n        policyList.push(pol);\r\n        insurerInfo[msg.sender].policies.push(pol);\r\n    }\r\n\r\n    // Called by Insurer\r\n    function approveClaimsByInsurer(uint _id) payable public {\r\n        require(msg.sender != address(0));\r\n        require(insurerInfo[msg.sender].exists);\r\n        require(msg.sender == claims[_id].insurer);\r\n        require(!claims[_id].approved);\r\n        require(!claims[_id].rejected);\r\n        address _addr = claims[_id].doctor;\r\n        require(doctorInfo[_addr].exists);\r\n        payable(_addr).transfer(msg.value);\r\n        Claims storage cl = claims[_id];\r\n        cl.approved = true;\r\n        Transactions storage tr = transactions[claims[_id].transactionId];\r\n        tr.settled = true;\r\n    }\r\n\r\n    // Called by Insurer\r\n    function rejectClaimsByInsurer(uint _id) public {\r\n        require(msg.sender != address(0));\r\n        require(insurerInfo[msg.sender].exists);\r\n        require(msg.sender == claims[_id].insurer);\r\n        require(!claims[_id].approved);\r\n        require(!claims[_id].rejected);\r\n        address _addr = claims[_id].patient;\r\n        require(patientInfo[_addr].exists);\r\n        Claims storage cl = claims[_id];\r\n        cl.rejected = true;\r\n        Transactions storage tr = transactions[claims[_id].transactionId];\r\n        tr.sender = _addr;\r\n        patientInfo[_addr].transactions.push(claims[_id].transactionId);\r\n        Policy storage pol = patientInfo[_addr].policy;\r\n        if(!patientInfo[_addr].policyActive){\r\n            patientInfo[_addr].policyActive = true;\r\n        }\r\n        pol.coverValue += claims[_id].valueClaimed;\r\n    }\r\n\r\n    function removeFromList(address[] storage Array, address addr) internal returns (uint){\r\n        require(addr != address(0));\r\n        bool check = false;\r\n        uint del_index = 0;\r\n        for(uint i = 0; i<Array.length; i++){\r\n            if(Array[i] == addr){\r\n                check = true;\r\n                del_index = i;\r\n            }\r\n        }\r\n        if(!check) revert();\r\n        else{\r\n            if(Array.length > 1){\r\n                Array[del_index] = Array[Array.length - 1];\r\n            }\r\n            Array.pop();\r\n        }\r\n        return del_index;\r\n    }\r\n}\r\n",
  "sourcePath": "D:\\testBlock\\contracts\\MediChain.sol",
  "compiler": {
    "name": "solc",
    "version": "0.8.18+commit.87f61d96.Emscripten.clang"
  },
  "schemaVersion": "3.4.16",
  "updatedAt": "2025-03-26T06:51:43.793Z",
  "networkType": "ethereum",
  "devdoc": {
    "kind": "dev",
    "methods": {},
    "version": 1
  },
  "userdoc": {
    "kind": "user",
    "methods": {},
    "version": 1
  }
}